{
  "_format": "hh-sol-artifact-1",
  "contractName": "BookRegistry",
  "sourceName": "contracts/BookRegistry.sol",
  "abi": [
    {
      "inputs": [],
      "stateMutability": "nonpayable",
      "type": "constructor"
    },
    {
      "anonymous": false,
      "inputs": [
        {
          "indexed": true,
          "internalType": "uint256",
          "name": "bookId",
          "type": "uint256"
        },
        {
          "indexed": false,
          "internalType": "string",
          "name": "title",
          "type": "string"
        },
        {
          "indexed": false,
          "internalType": "string",
          "name": "author",
          "type": "string"
        },
        {
          "indexed": true,
          "internalType": "address",
          "name": "owner",
          "type": "address"
        }
      ],
      "name": "BookAdded",
      "type": "event"
    },
    {
      "anonymous": false,
      "inputs": [
        {
          "indexed": true,
          "internalType": "uint256",
          "name": "bookId",
          "type": "uint256"
        },
        {
          "indexed": true,
          "internalType": "address",
          "name": "previousOwner",
          "type": "address"
        },
        {
          "indexed": true,
          "internalType": "address",
          "name": "newOwner",
          "type": "address"
        }
      ],
      "name": "OwnershipTransferred",
      "type": "event"
    },
    {
      "inputs": [
        {
          "internalType": "uint256",
          "name": "registration",
          "type": "uint256"
        },
        {
          "internalType": "string",
          "name": "_title",
          "type": "string"
        },
        {
          "internalType": "string",
          "name": "_author",
          "type": "string"
        }
      ],
      "name": "addBook",
      "outputs": [],
      "stateMutability": "nonpayable",
      "type": "function"
    },
    {
      "inputs": [],
      "name": "bookCount",
      "outputs": [
        {
          "internalType": "uint256",
          "name": "",
          "type": "uint256"
        }
      ],
      "stateMutability": "view",
      "type": "function"
    },
    {
      "inputs": [
        {
          "internalType": "uint256",
          "name": "",
          "type": "uint256"
        }
      ],
      "name": "books",
      "outputs": [
        {
          "internalType": "string",
          "name": "title",
          "type": "string"
        },
        {
          "internalType": "string",
          "name": "author",
          "type": "string"
        },
        {
          "internalType": "address",
          "name": "currentOwner",
          "type": "address"
        }
      ],
      "stateMutability": "view",
      "type": "function"
    },
    {
      "inputs": [
        {
          "internalType": "uint256",
          "name": "registrationId",
          "type": "uint256"
        }
      ],
      "name": "getBookDetails",
      "outputs": [
        {
          "internalType": "string",
          "name": "",
          "type": "string"
        },
        {
          "internalType": "string",
          "name": "",
          "type": "string"
        },
        {
          "internalType": "address",
          "name": "",
          "type": "address"
        }
      ],
      "stateMutability": "view",
      "type": "function"
    },
    {
      "inputs": [],
      "name": "owner",
      "outputs": [
        {
          "internalType": "address",
          "name": "",
          "type": "address"
        }
      ],
      "stateMutability": "view",
      "type": "function"
    },
    {
      "inputs": [
        {
          "internalType": "uint256",
          "name": "registrationId",
          "type": "uint256"
        },
        {
          "internalType": "address",
          "name": "_newOwner",
          "type": "address"
        }
      ],
      "name": "transferOwnership",
      "outputs": [],
      "stateMutability": "nonpayable",
      "type": "function"
    }
  ],
  "bytecode": "0x608060405234801561001057600080fd5b50336000806101000a81548173ffffffffffffffffffffffffffffffffffffffff021916908373ffffffffffffffffffffffffffffffffffffffff16021790555061113f806100606000396000f3fe608060405234801561001057600080fd5b50600436106100625760003560e01c8063028414f21461006757806329507f7314610083578063687440461461009f57806374ff4818146100d15780638da5cb5b14610103578063b905ad7814610121575b600080fd5b610081600480360381019061007c9190610b60565b61013f565b005b61009d60048036038101906100989190610c49565b610343565b005b6100b960048036038101906100b49190610c89565b6105ec565b6040516100c893929190610d4d565b60405180910390f35b6100eb60048036038101906100e69190610c89565b610746565b6040516100fa93929190610d4d565b60405180910390f35b61010b610903565b6040516101189190610d92565b60405180910390f35b610129610927565b6040516101369190610dbc565b60405180910390f35b60008054906101000a900473ffffffffffffffffffffffffffffffffffffffff1673ffffffffffffffffffffffffffffffffffffffff163373ffffffffffffffffffffffffffffffffffffffff16146101cd576040517f08c379a00000000000000000000000000000000000000000000000000000000081526004016101c490610e49565b60405180910390fd5b604051806060016040528083815260200182815260200160008054906101000a900473ffffffffffffffffffffffffffffffffffffffff1673ffffffffffffffffffffffffffffffffffffffff1681525060016000858152602001908152602001600020600082015181600001908051906020019061024d92919061092d565b50602082015181600101908051906020019061026a92919061092d565b5060408201518160020160006101000a81548173ffffffffffffffffffffffffffffffffffffffff021916908373ffffffffffffffffffffffffffffffffffffffff160217905550905050600260008154809291906102c890610e98565b919050555060008054906101000a900473ffffffffffffffffffffffffffffffffffffffff1673ffffffffffffffffffffffffffffffffffffffff16837f1b21a084171e969413e7fa4bdca9cc0d7e30569645a0c3625952fe3f630ef4fd8484604051610336929190610ee1565b60405180910390a3505050565b600073ffffffffffffffffffffffffffffffffffffffff168173ffffffffffffffffffffffffffffffffffffffff1614156103b3576040517f08c379a00000000000000000000000000000000000000000000000000000000081526004016103aa90610f64565b60405180910390fd5b6001600083815260200190815260200160002060020160009054906101000a900473ffffffffffffffffffffffffffffffffffffffff1673ffffffffffffffffffffffffffffffffffffffff168173ffffffffffffffffffffffffffffffffffffffff161415610458576040517f08c379a000000000000000000000000000000000000000000000000000000000815260040161044f90610ff6565b60405180910390fd5b6001600083815260200190815260200160002060020160009054906101000a900473ffffffffffffffffffffffffffffffffffffffff1673ffffffffffffffffffffffffffffffffffffffff163373ffffffffffffffffffffffffffffffffffffffff16146104fc576040517f08c379a00000000000000000000000000000000000000000000000000000000081526004016104f390611088565b60405180910390fd5b60006001600084815260200190815260200160002060020160009054906101000a900473ffffffffffffffffffffffffffffffffffffffff169050816001600085815260200190815260200160002060020160006101000a81548173ffffffffffffffffffffffffffffffffffffffff021916908373ffffffffffffffffffffffffffffffffffffffff1602179055508173ffffffffffffffffffffffffffffffffffffffff168173ffffffffffffffffffffffffffffffffffffffff16847f16b85f49bf01212961345d3016c9a531894accf62eb7680f2045d79185cc0ec060405160405180910390a4505050565b600160205280600052604060002060009150905080600001805461060f906110d7565b80601f016020809104026020016040519081016040528092919081815260200182805461063b906110d7565b80156106885780601f1061065d57610100808354040283529160200191610688565b820191906000526020600020905b81548152906001019060200180831161066b57829003601f168201915b50505050509080600101805461069d906110d7565b80601f01602080910402602001604051908101604052809291908181526020018280546106c9906110d7565b80156107165780601f106106eb57610100808354040283529160200191610716565b820191906000526020600020905b8154815290600101906020018083116106f957829003601f168201915b5050505050908060020160009054906101000a900473ffffffffffffffffffffffffffffffffffffffff16905083565b6060806000806001600086815260200190815260200160002060405180606001604052908160008201805461077a906110d7565b80601f01602080910402602001604051908101604052809291908181526020018280546107a6906110d7565b80156107f35780601f106107c8576101008083540402835291602001916107f3565b820191906000526020600020905b8154815290600101906020018083116107d657829003601f168201915b5050505050815260200160018201805461080c906110d7565b80601f0160208091040260200160405190810160405280929190818152602001828054610838906110d7565b80156108855780601f1061085a57610100808354040283529160200191610885565b820191906000526020600020905b81548152906001019060200180831161086857829003601f168201915b505050505081526020016002820160009054906101000a900473ffffffffffffffffffffffffffffffffffffffff1673ffffffffffffffffffffffffffffffffffffffff1673ffffffffffffffffffffffffffffffffffffffff16815250509050806000015181602001518260400151935093509350509193909250565b60008054906101000a900473ffffffffffffffffffffffffffffffffffffffff1681565b60025481565b828054610939906110d7565b90600052602060002090601f01602090048101928261095b57600085556109a2565b82601f1061097457805160ff19168380011785556109a2565b828001600101855582156109a2579182015b828111156109a1578251825591602001919060010190610986565b5b5090506109af91906109b3565b5090565b5b808211156109cc5760008160009055506001016109b4565b5090565b6000604051905090565b600080fd5b600080fd5b6000819050919050565b6109f7816109e4565b8114610a0257600080fd5b50565b600081359050610a14816109ee565b92915050565b600080fd5b600080fd5b6000601f19601f8301169050919050565b7f4e487b7100000000000000000000000000000000000000000000000000000000600052604160045260246000fd5b610a6d82610a24565b810181811067ffffffffffffffff82111715610a8c57610a8b610a35565b5b80604052505050565b6000610a9f6109d0565b9050610aab8282610a64565b919050565b600067ffffffffffffffff821115610acb57610aca610a35565b5b610ad482610a24565b9050602081019050919050565b82818337600083830152505050565b6000610b03610afe84610ab0565b610a95565b905082815260208101848484011115610b1f57610b1e610a1f565b5b610b2a848285610ae1565b509392505050565b600082601f830112610b4757610b46610a1a565b5b8135610b57848260208601610af0565b91505092915050565b600080600060608486031215610b7957610b786109da565b5b6000610b8786828701610a05565b935050602084013567ffffffffffffffff811115610ba857610ba76109df565b5b610bb486828701610b32565b925050604084013567ffffffffffffffff811115610bd557610bd46109df565b5b610be186828701610b32565b9150509250925092565b600073ffffffffffffffffffffffffffffffffffffffff82169050919050565b6000610c1682610beb565b9050919050565b610c2681610c0b565b8114610c3157600080fd5b50565b600081359050610c4381610c1d565b92915050565b60008060408385031215610c6057610c5f6109da565b5b6000610c6e85828601610a05565b9250506020610c7f85828601610c34565b9150509250929050565b600060208284031215610c9f57610c9e6109da565b5b6000610cad84828501610a05565b91505092915050565b600081519050919050565b600082825260208201905092915050565b60005b83811015610cf0578082015181840152602081019050610cd5565b83811115610cff576000848401525b50505050565b6000610d1082610cb6565b610d1a8185610cc1565b9350610d2a818560208601610cd2565b610d3381610a24565b840191505092915050565b610d4781610c0b565b82525050565b60006060820190508181036000830152610d678186610d05565b90508181036020830152610d7b8185610d05565b9050610d8a6040830184610d3e565b949350505050565b6000602082019050610da76000830184610d3e565b92915050565b610db6816109e4565b82525050565b6000602082019050610dd16000830184610dad565b92915050565b7f4f6e6c7920746865206f776e65722063616e20706572666f726d20746869732060008201527f616374696f6e0000000000000000000000000000000000000000000000000000602082015250565b6000610e33602683610cc1565b9150610e3e82610dd7565b604082019050919050565b60006020820190508181036000830152610e6281610e26565b9050919050565b7f4e487b7100000000000000000000000000000000000000000000000000000000600052601160045260246000fd5b6000610ea3826109e4565b91507fffffffffffffffffffffffffffffffffffffffffffffffffffffffffffffffff821415610ed657610ed5610e69565b5b600182019050919050565b60006040820190508181036000830152610efb8185610d05565b90508181036020830152610f0f8184610d05565b90509392505050565b7f496e76616c696420616464726573730000000000000000000000000000000000600082015250565b6000610f4e600f83610cc1565b9150610f5982610f18565b602082019050919050565b60006020820190508181036000830152610f7d81610f41565b9050919050565b7f546865206e6577206f776e6572206973207468652073616d652061732074686560008201527f2063757272656e74206f776e6572000000000000000000000000000000000000602082015250565b6000610fe0602e83610cc1565b9150610feb82610f84565b604082019050919050565b6000602082019050818103600083015261100f81610fd3565b9050919050565b7f4f6e6c79207468652063757272656e74206f776e65722063616e207472616e7360008201527f666572206f776e65727368697000000000000000000000000000000000000000602082015250565b6000611072602d83610cc1565b915061107d82611016565b604082019050919050565b600060208201905081810360008301526110a181611065565b9050919050565b7f4e487b7100000000000000000000000000000000000000000000000000000000600052602260045260246000fd5b600060028204905060018216806110ef57607f821691505b60208210811415611103576111026110a8565b5b5091905056fea2646970667358221220a61ace8145b609db5c826c2f32f73563110f9e33678913ce699b5054ca1b549264736f6c634300080a0033",
  "linkReferences": {},
  "deployedLinkReferences": {}
}